{
  "abi": [
    {
      "inputs": [
        {
          "internalType": "address",
          "name": "intialOwner",
          "type": "address"
        }
      ],
      "stateMutability": "nonpayable",
      "type": "constructor"
    },
    {
      "inputs": [
        {
          "internalType": "address",
          "name": "receiver",
          "type": "address"
        }
      ],
      "name": "ERC1363EOAReceiver",
      "type": "error"
    },
    {
      "inputs": [
        {
          "internalType": "address",
          "name": "spender",
          "type": "address"
        }
      ],
      "name": "ERC1363EOASpender",
      "type": "error"
    },
    {
      "inputs": [
        {
          "internalType": "address",
          "name": "receiver",
          "type": "address"
        }
      ],
      "name": "ERC1363InvalidReceiver",
      "type": "error"
    },
    {
      "inputs": [
        {
          "internalType": "address",
          "name": "spender",
          "type": "address"
        }
      ],
      "name": "ERC1363InvalidSpender",
      "type": "error"
    },
    {
      "inputs": [
        {
          "internalType": "address",
          "name": "spender",
          "type": "address"
        },
        {
          "internalType": "uint256",
          "name": "allowance",
          "type": "uint256"
        },
        {
          "internalType": "uint256",
          "name": "needed",
          "type": "uint256"
        }
      ],
      "name": "ERC20InsufficientAllowance",
      "type": "error"
    },
    {
      "inputs": [
        {
          "internalType": "address",
          "name": "sender",
          "type": "address"
        },
        {
          "internalType": "uint256",
          "name": "balance",
          "type": "uint256"
        },
        {
          "internalType": "uint256",
          "name": "needed",
          "type": "uint256"
        }
      ],
      "name": "ERC20InsufficientBalance",
      "type": "error"
    },
    {
      "inputs": [
        {
          "internalType": "address",
          "name": "approver",
          "type": "address"
        }
      ],
      "name": "ERC20InvalidApprover",
      "type": "error"
    },
    {
      "inputs": [
        {
          "internalType": "address",
          "name": "receiver",
          "type": "address"
        }
      ],
      "name": "ERC20InvalidReceiver",
      "type": "error"
    },
    {
      "inputs": [
        {
          "internalType": "address",
          "name": "sender",
          "type": "address"
        }
      ],
      "name": "ERC20InvalidSender",
      "type": "error"
    },
    {
      "inputs": [
        {
          "internalType": "address",
          "name": "spender",
          "type": "address"
        }
      ],
      "name": "ERC20InvalidSpender",
      "type": "error"
    },
    {
      "inputs": [
        {
          "internalType": "address",
          "name": "owner",
          "type": "address"
        }
      ],
      "name": "OwnableInvalidOwner",
      "type": "error"
    },
    {
      "inputs": [
        {
          "internalType": "address",
          "name": "account",
          "type": "address"
        }
      ],
      "name": "OwnableUnauthorizedAccount",
      "type": "error"
    },
    {
      "anonymous": false,
      "inputs": [
        {
          "indexed": true,
          "internalType": "address",
          "name": "owner",
          "type": "address"
        },
        {
          "indexed": true,
          "internalType": "address",
          "name": "spender",
          "type": "address"
        },
        {
          "indexed": false,
          "internalType": "uint256",
          "name": "value",
          "type": "uint256"
        }
      ],
      "name": "Approval",
      "type": "event"
    },
    {
      "anonymous": false,
      "inputs": [
        {
          "indexed": true,
          "internalType": "address",
          "name": "previousOwner",
          "type": "address"
        },
        {
          "indexed": true,
          "internalType": "address",
          "name": "newOwner",
          "type": "address"
        }
      ],
      "name": "OwnershipTransferStarted",
      "type": "event"
    },
    {
      "anonymous": false,
      "inputs": [
        {
          "indexed": true,
          "internalType": "address",
          "name": "previousOwner",
          "type": "address"
        },
        {
          "indexed": true,
          "internalType": "address",
          "name": "newOwner",
          "type": "address"
        }
      ],
      "name": "OwnershipTransferred",
      "type": "event"
    },
    {
      "anonymous": false,
      "inputs": [
        {
          "indexed": true,
          "internalType": "address",
          "name": "from",
          "type": "address"
        },
        {
          "indexed": true,
          "internalType": "address",
          "name": "to",
          "type": "address"
        },
        {
          "indexed": false,
          "internalType": "uint256",
          "name": "value",
          "type": "uint256"
        }
      ],
      "name": "Transfer",
      "type": "event"
    },
    {
      "inputs": [],
      "name": "acceptOwnership",
      "outputs": [],
      "stateMutability": "nonpayable",
      "type": "function"
    },
    {
      "inputs": [
        {
          "internalType": "address",
          "name": "owner",
          "type": "address"
        },
        {
          "internalType": "address",
          "name": "spender",
          "type": "address"
        }
      ],
      "name": "allowance",
      "outputs": [
        {
          "internalType": "uint256",
          "name": "",
          "type": "uint256"
        }
      ],
      "stateMutability": "view",
      "type": "function"
    },
    {
      "inputs": [
        {
          "internalType": "address",
          "name": "spender",
          "type": "address"
        },
        {
          "internalType": "uint256",
          "name": "value",
          "type": "uint256"
        }
      ],
      "name": "approve",
      "outputs": [
        {
          "internalType": "bool",
          "name": "",
          "type": "bool"
        }
      ],
      "stateMutability": "nonpayable",
      "type": "function"
    },
    {
      "inputs": [
        {
          "internalType": "address",
          "name": "spender",
          "type": "address"
        },
        {
          "internalType": "uint256",
          "name": "value",
          "type": "uint256"
        }
      ],
      "name": "approveAndCall",
      "outputs": [
        {
          "internalType": "bool",
          "name": "",
          "type": "bool"
        }
      ],
      "stateMutability": "nonpayable",
      "type": "function"
    },
    {
      "inputs": [
        {
          "internalType": "address",
          "name": "spender",
          "type": "address"
        },
        {
          "internalType": "uint256",
          "name": "value",
          "type": "uint256"
        },
        {
          "internalType": "bytes",
          "name": "data",
          "type": "bytes"
        }
      ],
      "name": "approveAndCall",
      "outputs": [
        {
          "internalType": "bool",
          "name": "",
          "type": "bool"
        }
      ],
      "stateMutability": "nonpayable",
      "type": "function"
    },
    {
      "inputs": [
        {
          "internalType": "address",
          "name": "account",
          "type": "address"
        }
      ],
      "name": "balanceOf",
      "outputs": [
        {
          "internalType": "uint256",
          "name": "",
          "type": "uint256"
        }
      ],
      "stateMutability": "view",
      "type": "function"
    },
    {
      "inputs": [
        {
          "internalType": "address[]",
          "name": "_address",
          "type": "address[]"
        }
      ],
      "name": "banUser",
      "outputs": [],
      "stateMutability": "nonpayable",
      "type": "function"
    },
    {
      "inputs": [
        {
          "internalType": "address",
          "name": "",
          "type": "address"
        }
      ],
      "name": "banned",
      "outputs": [
        {
          "internalType": "bool",
          "name": "",
          "type": "bool"
        }
      ],
      "stateMutability": "view",
      "type": "function"
    },
    {
      "inputs": [],
      "name": "decimals",
      "outputs": [
        {
          "internalType": "uint8",
          "name": "",
          "type": "uint8"
        }
      ],
      "stateMutability": "view",
      "type": "function"
    },
    {
      "inputs": [
        {
          "internalType": "address",
          "name": "_to",
          "type": "address"
        },
        {
          "internalType": "uint256",
          "name": "_amount",
          "type": "uint256"
        }
      ],
      "name": "mint",
      "outputs": [],
      "stateMutability": "nonpayable",
      "type": "function"
    },
    {
      "inputs": [],
      "name": "name",
      "outputs": [
        {
          "internalType": "string",
          "name": "",
          "type": "string"
        }
      ],
      "stateMutability": "view",
      "type": "function"
    },
    {
      "inputs": [
        {
          "internalType": "address",
          "name": "operator",
          "type": "address"
        },
        {
          "internalType": "address",
          "name": "from",
          "type": "address"
        },
        {
          "internalType": "uint256",
          "name": "value",
          "type": "uint256"
        },
        {
          "internalType": "bytes",
          "name": "data",
          "type": "bytes"
        }
      ],
      "name": "onTransferReceived",
      "outputs": [
        {
          "internalType": "bytes4",
          "name": "",
          "type": "bytes4"
        }
      ],
      "stateMutability": "pure",
      "type": "function"
    },
    {
      "inputs": [],
      "name": "owner",
      "outputs": [
        {
          "internalType": "address",
          "name": "",
          "type": "address"
        }
      ],
      "stateMutability": "view",
      "type": "function"
    },
    {
      "inputs": [],
      "name": "pendingOwner",
      "outputs": [
        {
          "internalType": "address",
          "name": "",
          "type": "address"
        }
      ],
      "stateMutability": "view",
      "type": "function"
    },
    {
      "inputs": [],
      "name": "renounceOwnership",
      "outputs": [],
      "stateMutability": "nonpayable",
      "type": "function"
    },
    {
      "inputs": [
        {
          "internalType": "bytes4",
          "name": "interfaceId",
          "type": "bytes4"
        }
      ],
      "name": "supportsInterface",
      "outputs": [
        {
          "internalType": "bool",
          "name": "",
          "type": "bool"
        }
      ],
      "stateMutability": "view",
      "type": "function"
    },
    {
      "inputs": [],
      "name": "symbol",
      "outputs": [
        {
          "internalType": "string",
          "name": "",
          "type": "string"
        }
      ],
      "stateMutability": "view",
      "type": "function"
    },
    {
      "inputs": [],
      "name": "totalSupply",
      "outputs": [
        {
          "internalType": "uint256",
          "name": "",
          "type": "uint256"
        }
      ],
      "stateMutability": "view",
      "type": "function"
    },
    {
      "inputs": [
        {
          "internalType": "address",
          "name": "to",
          "type": "address"
        },
        {
          "internalType": "uint256",
          "name": "value",
          "type": "uint256"
        }
      ],
      "name": "transfer",
      "outputs": [
        {
          "internalType": "bool",
          "name": "",
          "type": "bool"
        }
      ],
      "stateMutability": "nonpayable",
      "type": "function"
    },
    {
      "inputs": [
        {
          "internalType": "address",
          "name": "to",
          "type": "address"
        },
        {
          "internalType": "uint256",
          "name": "value",
          "type": "uint256"
        }
      ],
      "name": "transferAndCall",
      "outputs": [
        {
          "internalType": "bool",
          "name": "",
          "type": "bool"
        }
      ],
      "stateMutability": "nonpayable",
      "type": "function"
    },
    {
      "inputs": [
        {
          "internalType": "address",
          "name": "to",
          "type": "address"
        },
        {
          "internalType": "uint256",
          "name": "value",
          "type": "uint256"
        },
        {
          "internalType": "bytes",
          "name": "_data",
          "type": "bytes"
        }
      ],
      "name": "transferAndCall",
      "outputs": [
        {
          "internalType": "bool",
          "name": "",
          "type": "bool"
        }
      ],
      "stateMutability": "nonpayable",
      "type": "function"
    },
    {
      "inputs": [
        {
          "internalType": "address",
          "name": "from",
          "type": "address"
        },
        {
          "internalType": "address",
          "name": "to",
          "type": "address"
        },
        {
          "internalType": "uint256",
          "name": "value",
          "type": "uint256"
        }
      ],
      "name": "transferFrom",
      "outputs": [
        {
          "internalType": "bool",
          "name": "",
          "type": "bool"
        }
      ],
      "stateMutability": "nonpayable",
      "type": "function"
    },
    {
      "inputs": [
        {
          "internalType": "address",
          "name": "from",
          "type": "address"
        },
        {
          "internalType": "address",
          "name": "to",
          "type": "address"
        },
        {
          "internalType": "uint256",
          "name": "value",
          "type": "uint256"
        },
        {
          "internalType": "bytes",
          "name": "data",
          "type": "bytes"
        }
      ],
      "name": "transferFromAndCall",
      "outputs": [
        {
          "internalType": "bool",
          "name": "",
          "type": "bool"
        }
      ],
      "stateMutability": "nonpayable",
      "type": "function"
    },
    {
      "inputs": [
        {
          "internalType": "address",
          "name": "from",
          "type": "address"
        },
        {
          "internalType": "address",
          "name": "to",
          "type": "address"
        },
        {
          "internalType": "uint256",
          "name": "value",
          "type": "uint256"
        }
      ],
      "name": "transferFromAndCall",
      "outputs": [
        {
          "internalType": "bool",
          "name": "",
          "type": "bool"
        }
      ],
      "stateMutability": "nonpayable",
      "type": "function"
    },
    {
      "inputs": [
        {
          "internalType": "address",
          "name": "newOwner",
          "type": "address"
        }
      ],
      "name": "transferOwnership",
      "outputs": [],
      "stateMutability": "nonpayable",
      "type": "function"
    }
  ],
  "bytecode": {
    "object": "0x60806040523480156200001157600080fd5b5060405162001ee138038062001ee18339810160408190526200003491620002d0565b806040518060400160405280600381526020016252534b60e81b8152506040518060400160405280600a81526020016952617265536b696c6c7360b01b8152508160039081620000859190620003a7565b506004620000948282620003a7565b5050506001600160a01b038116620000c757604051631e4fbdf760e01b8152600060048201526024015b60405180910390fd5b620000d281620000ef565b50620000e8816801158e460913d000006200010d565b506200049b565b600680546001600160a01b03191690556200010a816200014b565b50565b6001600160a01b038216620001395760405163ec442f0560e01b815260006004820152602401620000be565b62000147600083836200019d565b5050565b600580546001600160a01b038381166001600160a01b0319831681179093556040519116919082907f8be0079c531659141344cd1fd0a4f28419497f9722a3daafe3b4186f6b6457e090600090a35050565b6001600160a01b038316620001cc578060026000828254620001c0919062000473565b90915550620002409050565b6001600160a01b03831660009081526020819052604090205481811015620002215760405163391434e360e21b81526001600160a01b03851660048201526024810182905260448101839052606401620000be565b6001600160a01b03841660009081526020819052604090209082900390555b6001600160a01b0382166200025e576002805482900390556200027d565b6001600160a01b03821660009081526020819052604090208054820190555b816001600160a01b0316836001600160a01b03167fddf252ad1be2c89b69c2b068fc378daa952ba7f163c4a11628f55a4df523b3ef83604051620002c391815260200190565b60405180910390a3505050565b600060208284031215620002e357600080fd5b81516001600160a01b0381168114620002fb57600080fd5b9392505050565b634e487b7160e01b600052604160045260246000fd5b600181811c908216806200032d57607f821691505b6020821081036200034e57634e487b7160e01b600052602260045260246000fd5b50919050565b601f821115620003a257600081815260208120601f850160051c810160208610156200037d5750805b601f850160051c820191505b818110156200039e5782815560010162000389565b5050505b505050565b81516001600160401b03811115620003c357620003c362000302565b620003db81620003d4845462000318565b8462000354565b602080601f831160018114620004135760008415620003fa5750858301515b600019600386901b1c1916600185901b1785556200039e565b600085815260208120601f198616915b82811015620004445788860151825594840194600190910190840162000423565b5085821015620004635787850151600019600388901b60f8161c191681555b5050505050600190811b01905550565b808201808211156200049557634e487b7160e01b600052601160045260246000fd5b92915050565b611a3680620004ab6000396000f3fe608060405234801561001057600080fd5b50600436106101a35760003560e01c806379ba5097116100ee578063a9059cbb11610097578063d8fbe99411610071578063d8fbe994146103df578063dd62ed3e146103f2578063e30c397814610438578063f2fde38b1461045657600080fd5b8063a9059cbb146103a6578063c1d34b89146103b9578063cae9ca51146103cc57600080fd5b80638da5cb5b116100c85780638da5cb5b1461033c57806395d89b411461037b5780639c8d83bb1461038357600080fd5b806379ba5097146102b85780637f205499146102c057806388a7ca5c146102d357600080fd5b8063313ce5671161015057806340c10f191161012a57806340c10f191461026557806370a082311461027a578063715018a6146102b057600080fd5b8063313ce567146102305780633177029f1461023f5780634000aea01461025257600080fd5b80631296ee62116101815780631296ee62146101f857806318160ddd1461020b57806323b872dd1461021d57600080fd5b806301ffc9a7146101a857806306fdde03146101d0578063095ea7b3146101e5575b600080fd5b6101bb6101b6366004611446565b610469565b60405190151581526020015b60405180910390f35b6101d8610502565b6040516101c791906114c7565b6101bb6101f3366004611503565b610594565b6101bb610206366004611503565b6105ac565b6002545b6040519081526020016101c7565b6101bb61022b36600461152d565b6105cf565b604051601281526020016101c7565b6101bb61024d366004611503565b6105f3565b6101bb610260366004611643565b61060f565b610278610273366004611503565b61062d565b005b61020f61028836600461169a565b73ffffffffffffffffffffffffffffffffffffffff1660009081526020819052604090205490565b610278610643565b610278610657565b6102786102ce3660046116b5565b6106d3565b61030b6102e136600461172a565b7f88a7ca5c0000000000000000000000000000000000000000000000000000000095945050505050565b6040517fffffffff0000000000000000000000000000000000000000000000000000000090911681526020016101c7565b60055473ffffffffffffffffffffffffffffffffffffffff165b60405173ffffffffffffffffffffffffffffffffffffffff90911681526020016101c7565b6101d861077f565b6101bb61039136600461169a565b60076020526000908152604090205460ff1681565b6101bb6103b4366004611503565b61078e565b6101bb6103c73660046117c5565b6107a3565b6101bb6103da366004611643565b6107bd565b6101bb6103ed36600461152d565b6107d5565b61020f61040036600461182d565b73ffffffffffffffffffffffffffffffffffffffff918216600090815260016020908152604080832093909416825291909152205490565b60065473ffffffffffffffffffffffffffffffffffffffff16610356565b61027861046436600461169a565b6107f2565b60007fffffffff0000000000000000000000000000000000000000000000000000000082167fb0202a110000000000000000000000000000000000000000000000000000000014806104fc57507f01ffc9a7000000000000000000000000000000000000000000000000000000007fffffffff000000000000000000000000000000000000000000000000000000008316145b92915050565b60606003805461051190611860565b80601f016020809104026020016040519081016040528092919081815260200182805461053d90611860565b801561058a5780601f1061055f5761010080835404028352916020019161058a565b820191906000526020600020905b81548152906001019060200180831161056d57829003601f168201915b5050505050905090565b6000336105a28185856108a2565b5060019392505050565b60006105c883836040518060200160405280600081525061060f565b9392505050565b6000336105dd8582856108b4565b6105e885858561097d565b506001949350505050565b60006105c88383604051806020016040528060008152506107bd565b600061061a84610a28565b610625848484610b32565b949350505050565b610635610b4b565b61063f8282610b9e565b5050565b61064b610b4b565b6106556000610bfa565b565b600654339073ffffffffffffffffffffffffffffffffffffffff1681146106c7576040517f118cdaa700000000000000000000000000000000000000000000000000000000815273ffffffffffffffffffffffffffffffffffffffff821660048201526024015b60405180910390fd5b6106d081610bfa565b50565b6106db610b4b565b8060005b81811015610779576001600760008686858181106106ff576106ff6118b3565b9050602002016020810190610714919061169a565b73ffffffffffffffffffffffffffffffffffffffff168152602081019190915260400160002080547fffffffffffffffffffffffffffffffffffffffffffffffffffffffffffffff00169115159190911790558061077181611911565b9150506106df565b50505050565b60606004805461051190611860565b600061079983610a28565b6105c88383610c2b565b60006107b08585856105cf565b506105e885858585610c39565b60006107c98484610594565b506105a2848484610e7c565b6000610625848484604051806020016040528060008152506107a3565b6107fa610b4b565b6006805473ffffffffffffffffffffffffffffffffffffffff83167fffffffffffffffffffffffff0000000000000000000000000000000000000000909116811790915561085d60055473ffffffffffffffffffffffffffffffffffffffff1690565b73ffffffffffffffffffffffffffffffffffffffff167f38d16b8cac22d99fc7c124b9cd0de2d3fa1faef420bfe791d8c362d765e2270060405160405180910390a350565b6108af83838360016110ae565b505050565b73ffffffffffffffffffffffffffffffffffffffff8381166000908152600160209081526040808320938616835292905220547fffffffffffffffffffffffffffffffffffffffffffffffffffffffffffffffff8114610779578181101561096e576040517ffb8f41b200000000000000000000000000000000000000000000000000000000815273ffffffffffffffffffffffffffffffffffffffff8416600482015260248101829052604481018390526064016106be565b610779848484840360006110ae565b73ffffffffffffffffffffffffffffffffffffffff83166109cd576040517f96c6fd1e000000000000000000000000000000000000000000000000000000008152600060048201526024016106be565b73ffffffffffffffffffffffffffffffffffffffff8216610a1d576040517fec442f05000000000000000000000000000000000000000000000000000000008152600060048201526024016106be565b6108af8383836111f6565b3360009081526007602052604090205460ff1615610aa2576040517f08c379a000000000000000000000000000000000000000000000000000000000815260206004820152601060248201527f53656e6465722069732062616e6e65640000000000000000000000000000000060448201526064016106be565b73ffffffffffffffffffffffffffffffffffffffff811660009081526007602052604090205460ff16156106d0576040517f08c379a000000000000000000000000000000000000000000000000000000000815260206004820152601360248201527f526563697069656e742069732062616e6e65640000000000000000000000000060448201526064016106be565b6000610b3e848461078e565b506105a233858585610c39565b60055473ffffffffffffffffffffffffffffffffffffffff163314610655576040517f118cdaa70000000000000000000000000000000000000000000000000000000081523360048201526024016106be565b73ffffffffffffffffffffffffffffffffffffffff8216610bee576040517fec442f05000000000000000000000000000000000000000000000000000000008152600060048201526024016106be565b61063f600083836111f6565b600680547fffffffffffffffffffffffff00000000000000000000000000000000000000001690556106d0816113a1565b6000336105a281858561097d565b8273ffffffffffffffffffffffffffffffffffffffff163b600003610ca2576040517f14b41af400000000000000000000000000000000000000000000000000000000815273ffffffffffffffffffffffffffffffffffffffff841660048201526024016106be565b6040517f88a7ca5c00000000000000000000000000000000000000000000000000000000815273ffffffffffffffffffffffffffffffffffffffff8416906388a7ca5c90610cfa903390889087908790600401611949565b6020604051808303816000875af1925050508015610d53575060408051601f3d9081017fffffffffffffffffffffffffffffffffffffffffffffffffffffffffffffffe0168201909252610d5091810190611992565b60015b610de2573d808015610d81576040519150601f19603f3d011682016040523d82523d6000602084013e610d86565b606091505b508051600003610dda576040517f8a96cd9c00000000000000000000000000000000000000000000000000000000815273ffffffffffffffffffffffffffffffffffffffff851660048201526024016106be565b805181602001fd5b7fffffffff0000000000000000000000000000000000000000000000000000000081167f88a7ca5c0000000000000000000000000000000000000000000000000000000014610e75576040517f8a96cd9c00000000000000000000000000000000000000000000000000000000815273ffffffffffffffffffffffffffffffffffffffff851660048201526024016106be565b5050505050565b8273ffffffffffffffffffffffffffffffffffffffff163b600003610ee5576040517f0778150c00000000000000000000000000000000000000000000000000000000815273ffffffffffffffffffffffffffffffffffffffff841660048201526024016106be565b6040517f7b04a2d000000000000000000000000000000000000000000000000000000000815273ffffffffffffffffffffffffffffffffffffffff841690637b04a2d090610f3b903390869086906004016119af565b6020604051808303816000875af1925050508015610f94575060408051601f3d9081017fffffffffffffffffffffffffffffffffffffffffffffffffffffffffffffffe0168201909252610f9191810190611992565b60015b61101b573d808015610fc2576040519150601f19603f3d011682016040523d82523d6000602084013e610fc7565b606091505b508051600003610dda576040517fdeb6d3ed00000000000000000000000000000000000000000000000000000000815273ffffffffffffffffffffffffffffffffffffffff851660048201526024016106be565b7fffffffff0000000000000000000000000000000000000000000000000000000081167f7b04a2d00000000000000000000000000000000000000000000000000000000014610779576040517fdeb6d3ed00000000000000000000000000000000000000000000000000000000815273ffffffffffffffffffffffffffffffffffffffff851660048201526024016106be565b73ffffffffffffffffffffffffffffffffffffffff84166110fe576040517fe602df05000000000000000000000000000000000000000000000000000000008152600060048201526024016106be565b73ffffffffffffffffffffffffffffffffffffffff831661114e576040517f94280d62000000000000000000000000000000000000000000000000000000008152600060048201526024016106be565b73ffffffffffffffffffffffffffffffffffffffff80851660009081526001602090815260408083209387168352929052208290558015610779578273ffffffffffffffffffffffffffffffffffffffff168473ffffffffffffffffffffffffffffffffffffffff167f8c5be1e5ebec7d5bd14f71427d1e84f3dd0314c0f7b2291e5b200ac8c7c3b925846040516111e891815260200190565b60405180910390a350505050565b73ffffffffffffffffffffffffffffffffffffffff831661122e57806002600082825461122391906119ed565b909155506112e09050565b73ffffffffffffffffffffffffffffffffffffffff8316600090815260208190526040902054818110156112b4576040517fe450d38c00000000000000000000000000000000000000000000000000000000815273ffffffffffffffffffffffffffffffffffffffff8516600482015260248101829052604481018390526064016106be565b73ffffffffffffffffffffffffffffffffffffffff841660009081526020819052604090209082900390555b73ffffffffffffffffffffffffffffffffffffffff821661130957600280548290039055611335565b73ffffffffffffffffffffffffffffffffffffffff821660009081526020819052604090208054820190555b8173ffffffffffffffffffffffffffffffffffffffff168373ffffffffffffffffffffffffffffffffffffffff167fddf252ad1be2c89b69c2b068fc378daa952ba7f163c4a11628f55a4df523b3ef8360405161139491815260200190565b60405180910390a3505050565b6005805473ffffffffffffffffffffffffffffffffffffffff8381167fffffffffffffffffffffffff0000000000000000000000000000000000000000831681179093556040519116919082907f8be0079c531659141344cd1fd0a4f28419497f9722a3daafe3b4186f6b6457e090600090a35050565b7fffffffff00000000000000000000000000000000000000000000000000000000811681146106d057600080fd5b60006020828403121561145857600080fd5b81356105c881611418565b6000815180845260005b818110156114895760208185018101518683018201520161146d565b5060006020828601015260207fffffffffffffffffffffffffffffffffffffffffffffffffffffffffffffffe0601f83011685010191505092915050565b6020815260006105c86020830184611463565b803573ffffffffffffffffffffffffffffffffffffffff811681146114fe57600080fd5b919050565b6000806040838503121561151657600080fd5b61151f836114da565b946020939093013593505050565b60008060006060848603121561154257600080fd5b61154b846114da565b9250611559602085016114da565b9150604084013590509250925092565b7f4e487b7100000000000000000000000000000000000000000000000000000000600052604160045260246000fd5b600082601f8301126115a957600080fd5b813567ffffffffffffffff808211156115c4576115c4611569565b604051601f83017fffffffffffffffffffffffffffffffffffffffffffffffffffffffffffffffe0908116603f0116810190828211818310171561160a5761160a611569565b8160405283815286602085880101111561162357600080fd5b836020870160208301376000602085830101528094505050505092915050565b60008060006060848603121561165857600080fd5b611661846114da565b925060208401359150604084013567ffffffffffffffff81111561168457600080fd5b61169086828701611598565b9150509250925092565b6000602082840312156116ac57600080fd5b6105c8826114da565b600080602083850312156116c857600080fd5b823567ffffffffffffffff808211156116e057600080fd5b818501915085601f8301126116f457600080fd5b81358181111561170357600080fd5b8660208260051b850101111561171857600080fd5b60209290920196919550909350505050565b60008060008060006080868803121561174257600080fd5b61174b866114da565b9450611759602087016114da565b935060408601359250606086013567ffffffffffffffff8082111561177d57600080fd5b818801915088601f83011261179157600080fd5b8135818111156117a057600080fd5b8960208285010111156117b257600080fd5b9699959850939650602001949392505050565b600080600080608085870312156117db57600080fd5b6117e4856114da565b93506117f2602086016114da565b925060408501359150606085013567ffffffffffffffff81111561181557600080fd5b61182187828801611598565b91505092959194509250565b6000806040838503121561184057600080fd5b611849836114da565b9150611857602084016114da565b90509250929050565b600181811c9082168061187457607f821691505b6020821081036118ad577f4e487b7100000000000000000000000000000000000000000000000000000000600052602260045260246000fd5b50919050565b7f4e487b7100000000000000000000000000000000000000000000000000000000600052603260045260246000fd5b7f4e487b7100000000000000000000000000000000000000000000000000000000600052601160045260246000fd5b60007fffffffffffffffffffffffffffffffffffffffffffffffffffffffffffffffff8203611942576119426118e2565b5060010190565b600073ffffffffffffffffffffffffffffffffffffffff8087168352808616602084015250836040830152608060608301526119886080830184611463565b9695505050505050565b6000602082840312156119a457600080fd5b81516105c881611418565b73ffffffffffffffffffffffffffffffffffffffff841681528260208201526060604082015260006119e46060830184611463565b95945050505050565b808201808211156104fc576104fc6118e256fea264697066735822122081834e57c9f405dcb828211dcaec5ae58681e18e7e631974e1f38010daa629dc64736f6c63430008140033",
    "linkReferences": {}
  },
  "methodIdentifiers": {
    "acceptOwnership()": "79ba5097",
    "allowance(address,address)": "dd62ed3e",
    "approve(address,uint256)": "095ea7b3",
    "approveAndCall(address,uint256)": "3177029f",
    "approveAndCall(address,uint256,bytes)": "cae9ca51",
    "balanceOf(address)": "70a08231",
    "banUser(address[])": "7f205499",
    "banned(address)": "9c8d83bb",
    "decimals()": "313ce567",
    "mint(address,uint256)": "40c10f19",
    "name()": "06fdde03",
    "onTransferReceived(address,address,uint256,bytes)": "88a7ca5c",
    "owner()": "8da5cb5b",
    "pendingOwner()": "e30c3978",
    "renounceOwnership()": "715018a6",
    "supportsInterface(bytes4)": "01ffc9a7",
    "symbol()": "95d89b41",
    "totalSupply()": "18160ddd",
    "transfer(address,uint256)": "a9059cbb",
    "transferAndCall(address,uint256)": "1296ee62",
    "transferAndCall(address,uint256,bytes)": "4000aea0",
    "transferFrom(address,address,uint256)": "23b872dd",
    "transferFromAndCall(address,address,uint256)": "d8fbe994",
    "transferFromAndCall(address,address,uint256,bytes)": "c1d34b89",
    "transferOwnership(address)": "f2fde38b"
  },
  "id": 19
}