{
  "abi": [
    {
      "inputs": [
        {
          "internalType": "address",
          "name": "operator",
          "type": "address"
        },
        {
          "internalType": "address",
          "name": "from",
          "type": "address"
        },
        {
          "internalType": "uint256",
          "name": "value",
          "type": "uint256"
        },
        {
          "internalType": "bytes",
          "name": "data",
          "type": "bytes"
        }
      ],
      "name": "onTransferReceived",
      "outputs": [
        {
          "internalType": "bytes4",
          "name": "",
          "type": "bytes4"
        }
      ],
      "stateMutability": "pure",
      "type": "function"
    }
  ],
  "bytecode": {
    "object": "0x608060405234801561001057600080fd5b50610197806100206000396000f3fe608060405234801561001057600080fd5b506004361061002b5760003560e01c806388a7ca5c14610030575b600080fd5b61006861003e3660046100c6565b7f88a7ca5c0000000000000000000000000000000000000000000000000000000095945050505050565b6040517fffffffff00000000000000000000000000000000000000000000000000000000909116815260200160405180910390f35b803573ffffffffffffffffffffffffffffffffffffffff811681146100c157600080fd5b919050565b6000806000806000608086880312156100de57600080fd5b6100e78661009d565b94506100f56020870161009d565b935060408601359250606086013567ffffffffffffffff8082111561011957600080fd5b818801915088601f83011261012d57600080fd5b81358181111561013c57600080fd5b89602082850101111561014e57600080fd5b969995985093965060200194939250505056fea2646970667358221220152186180e0e33bf20678877025c3455c70434b1313cebc9c237c4dcc70b725664736f6c63430008140033",
    "linkReferences": {}
  },
  "methodIdentifiers": {
    "onTransferReceived(address,address,uint256,bytes)": "88a7ca5c"
  },
  "id": 20
}