{
  "src/mocks/MockSpender.sol": {
    "MockERC1363Spender": {
      "abi": [
        {
          "inputs": [
            {
              "internalType": "address",
              "name": "owner",
              "type": "address"
            },
            {
              "internalType": "uint256",
              "name": "value",
              "type": "uint256"
            },
            {
              "internalType": "bytes",
              "name": "data",
              "type": "bytes"
            }
          ],
          "name": "onApprovalReceived",
          "outputs": [
            {
              "internalType": "bytes4",
              "name": "",
              "type": "bytes4"
            }
          ],
          "stateMutability": "nonpayable",
          "type": "function"
        }
      ],
      "userdoc": {},
      "devdoc": {},
      "evm": {
        "bytecode": {
          "object": "608060405234801561001057600080fd5b50610174806100206000396000f3fe608060405234801561001057600080fd5b506004361061002b5760003560e01c80637b04a2d014610030575b600080fd5b61006761003e36600461009c565b7f7b04a2d000000000000000000000000000000000000000000000000000000000949350505050565b6040517fffffffff00000000000000000000000000000000000000000000000000000000909116815260200160405180910390f35b600080600080606085870312156100b257600080fd5b843573ffffffffffffffffffffffffffffffffffffffff811681146100d657600080fd5b935060208501359250604085013567ffffffffffffffff808211156100fa57600080fd5b818701915087601f83011261010e57600080fd5b81358181111561011d57600080fd5b88602082850101111561012f57600080fd5b9598949750506020019450505056fea26469706673582212203842e32c35727242f84b72dc6186ba157b50410395cd7d08ac38e0780a3a7a4a64736f6c63430008140033",
          "opcodes": "PUSH1 0x80 PUSH1 0x40 MSTORE CALLVALUE DUP1 ISZERO PUSH2 0x10 JUMPI PUSH1 0x0 DUP1 REVERT JUMPDEST POP PUSH2 0x174 DUP1 PUSH2 0x20 PUSH1 0x0 CODECOPY PUSH1 0x0 RETURN INVALID PUSH1 0x80 PUSH1 0x40 MSTORE CALLVALUE DUP1 ISZERO PUSH2 0x10 JUMPI PUSH1 0x0 DUP1 REVERT JUMPDEST POP PUSH1 0x4 CALLDATASIZE LT PUSH2 0x2B JUMPI PUSH1 0x0 CALLDATALOAD PUSH1 0xE0 SHR DUP1 PUSH4 0x7B04A2D0 EQ PUSH2 0x30 JUMPI JUMPDEST PUSH1 0x0 DUP1 REVERT JUMPDEST PUSH2 0x67 PUSH2 0x3E CALLDATASIZE PUSH1 0x4 PUSH2 0x9C JUMP JUMPDEST PUSH32 0x7B04A2D000000000000000000000000000000000000000000000000000000000 SWAP5 SWAP4 POP POP POP POP JUMP JUMPDEST PUSH1 0x40 MLOAD PUSH32 0xFFFFFFFF00000000000000000000000000000000000000000000000000000000 SWAP1 SWAP2 AND DUP2 MSTORE PUSH1 0x20 ADD PUSH1 0x40 MLOAD DUP1 SWAP2 SUB SWAP1 RETURN JUMPDEST PUSH1 0x0 DUP1 PUSH1 0x0 DUP1 PUSH1 0x60 DUP6 DUP8 SUB SLT ISZERO PUSH2 0xB2 JUMPI PUSH1 0x0 DUP1 REVERT JUMPDEST DUP5 CALLDATALOAD PUSH20 0xFFFFFFFFFFFFFFFFFFFFFFFFFFFFFFFFFFFFFFFF DUP2 AND DUP2 EQ PUSH2 0xD6 JUMPI PUSH1 0x0 DUP1 REVERT JUMPDEST SWAP4 POP PUSH1 0x20 DUP6 ADD CALLDATALOAD SWAP3 POP PUSH1 0x40 DUP6 ADD CALLDATALOAD PUSH8 0xFFFFFFFFFFFFFFFF DUP1 DUP3 GT ISZERO PUSH2 0xFA JUMPI PUSH1 0x0 DUP1 REVERT JUMPDEST DUP2 DUP8 ADD SWAP2 POP DUP8 PUSH1 0x1F DUP4 ADD SLT PUSH2 0x10E JUMPI PUSH1 0x0 DUP1 REVERT JUMPDEST DUP2 CALLDATALOAD DUP2 DUP2 GT ISZERO PUSH2 0x11D JUMPI PUSH1 0x0 DUP1 REVERT JUMPDEST DUP9 PUSH1 0x20 DUP3 DUP6 ADD ADD GT ISZERO PUSH2 0x12F JUMPI PUSH1 0x0 DUP1 REVERT JUMPDEST SWAP6 SWAP9 SWAP5 SWAP8 POP POP PUSH1 0x20 ADD SWAP5 POP POP POP JUMP INVALID LOG2 PUSH5 0x6970667358 0x22 SLT KECCAK256 CODESIZE TIMESTAMP 0xE3 0x2C CALLDATALOAD PUSH19 0x7242F84B72DC6186BA157B50410395CD7D08AC CODESIZE 0xE0 PUSH25 0xA3A7A4A64736F6C6343000814003300000000000000000000 ",
          "linkReferences": {}
        },
        "methodIdentifiers": {
          "onApprovalReceived(address,uint256,bytes)": "7b04a2d0"
        }
      }
    }
  }
}