{
  "abi": [
    {
      "inputs": [
        {
          "internalType": "address",
          "name": "initialOwner",
          "type": "address"
        },
        {
          "internalType": "string",
          "name": "tokenName",
          "type": "string"
        },
        {
          "internalType": "string",
          "name": "tokenSymbol",
          "type": "string"
        }
      ],
      "stateMutability": "nonpayable",
      "type": "constructor"
    },
    {
      "inputs": [
        {
          "internalType": "address",
          "name": "target",
          "type": "address"
        }
      ],
      "name": "AddressEmptyCode",
      "type": "error"
    },
    {
      "inputs": [
        {
          "internalType": "address",
          "name": "account",
          "type": "address"
        }
      ],
      "name": "AddressInsufficientBalance",
      "type": "error"
    },
    {
      "inputs": [
        {
          "internalType": "address",
          "name": "spender",
          "type": "address"
        },
        {
          "internalType": "uint256",
          "name": "allowance",
          "type": "uint256"
        },
        {
          "internalType": "uint256",
          "name": "needed",
          "type": "uint256"
        }
      ],
      "name": "ERC20InsufficientAllowance",
      "type": "error"
    },
    {
      "inputs": [
        {
          "internalType": "address",
          "name": "sender",
          "type": "address"
        },
        {
          "internalType": "uint256",
          "name": "balance",
          "type": "uint256"
        },
        {
          "internalType": "uint256",
          "name": "needed",
          "type": "uint256"
        }
      ],
      "name": "ERC20InsufficientBalance",
      "type": "error"
    },
    {
      "inputs": [
        {
          "internalType": "address",
          "name": "approver",
          "type": "address"
        }
      ],
      "name": "ERC20InvalidApprover",
      "type": "error"
    },
    {
      "inputs": [
        {
          "internalType": "address",
          "name": "receiver",
          "type": "address"
        }
      ],
      "name": "ERC20InvalidReceiver",
      "type": "error"
    },
    {
      "inputs": [
        {
          "internalType": "address",
          "name": "sender",
          "type": "address"
        }
      ],
      "name": "ERC20InvalidSender",
      "type": "error"
    },
    {
      "inputs": [
        {
          "internalType": "address",
          "name": "spender",
          "type": "address"
        }
      ],
      "name": "ERC20InvalidSpender",
      "type": "error"
    },
    {
      "inputs": [],
      "name": "FailedInnerCall",
      "type": "error"
    },
    {
      "inputs": [
        {
          "internalType": "uint256",
          "name": "payment",
          "type": "uint256"
        },
        {
          "internalType": "uint256",
          "name": "required",
          "type": "uint256"
        }
      ],
      "name": "InsufficientPayment",
      "type": "error"
    },
    {
      "inputs": [
        {
          "internalType": "address",
          "name": "owner",
          "type": "address"
        }
      ],
      "name": "OwnableInvalidOwner",
      "type": "error"
    },
    {
      "inputs": [
        {
          "internalType": "address",
          "name": "account",
          "type": "address"
        }
      ],
      "name": "OwnableUnauthorizedAccount",
      "type": "error"
    },
    {
      "inputs": [],
      "name": "ReentrancyGuardReentrantCall",
      "type": "error"
    },
    {
      "inputs": [
        {
          "internalType": "address",
          "name": "token",
          "type": "address"
        }
      ],
      "name": "SafeERC20FailedOperation",
      "type": "error"
    },
    {
      "anonymous": false,
      "inputs": [
        {
          "indexed": true,
          "internalType": "address",
          "name": "owner",
          "type": "address"
        },
        {
          "indexed": true,
          "internalType": "address",
          "name": "spender",
          "type": "address"
        },
        {
          "indexed": false,
          "internalType": "uint256",
          "name": "value",
          "type": "uint256"
        }
      ],
      "name": "Approval",
      "type": "event"
    },
    {
      "anonymous": false,
      "inputs": [
        {
          "indexed": true,
          "internalType": "address",
          "name": "previousOwner",
          "type": "address"
        },
        {
          "indexed": true,
          "internalType": "address",
          "name": "newOwner",
          "type": "address"
        }
      ],
      "name": "OwnershipTransferStarted",
      "type": "event"
    },
    {
      "anonymous": false,
      "inputs": [
        {
          "indexed": true,
          "internalType": "address",
          "name": "previousOwner",
          "type": "address"
        },
        {
          "indexed": true,
          "internalType": "address",
          "name": "newOwner",
          "type": "address"
        }
      ],
      "name": "OwnershipTransferred",
      "type": "event"
    },
    {
      "anonymous": false,
      "inputs": [
        {
          "indexed": false,
          "internalType": "uint256",
          "name": "amount",
          "type": "uint256"
        },
        {
          "indexed": false,
          "internalType": "uint256",
          "name": "priceReceived",
          "type": "uint256"
        }
      ],
      "name": "TokenBought",
      "type": "event"
    },
    {
      "anonymous": false,
      "inputs": [
        {
          "indexed": false,
          "internalType": "address",
          "name": "buyer",
          "type": "address"
        },
        {
          "indexed": false,
          "internalType": "uint256",
          "name": "amount",
          "type": "uint256"
        },
        {
          "indexed": false,
          "internalType": "uint256",
          "name": "pricePaid",
          "type": "uint256"
        }
      ],
      "name": "TokenSold",
      "type": "event"
    },
    {
      "anonymous": false,
      "inputs": [
        {
          "indexed": true,
          "internalType": "address",
          "name": "from",
          "type": "address"
        },
        {
          "indexed": true,
          "internalType": "address",
          "name": "to",
          "type": "address"
        },
        {
          "indexed": false,
          "internalType": "uint256",
          "name": "value",
          "type": "uint256"
        }
      ],
      "name": "Transfer",
      "type": "event"
    },
    {
      "inputs": [],
      "name": "PRICE_INCREMENT",
      "outputs": [
        {
          "internalType": "uint256",
          "name": "",
          "type": "uint256"
        }
      ],
      "stateMutability": "view",
      "type": "function"
    },
    {
      "inputs": [],
      "name": "START_PRICE",
      "outputs": [
        {
          "internalType": "uint256",
          "name": "",
          "type": "uint256"
        }
      ],
      "stateMutability": "view",
      "type": "function"
    },
    {
      "inputs": [],
      "name": "acceptOwnership",
      "outputs": [],
      "stateMutability": "nonpayable",
      "type": "function"
    },
    {
      "inputs": [
        {
          "internalType": "address",
          "name": "owner",
          "type": "address"
        },
        {
          "internalType": "address",
          "name": "spender",
          "type": "address"
        }
      ],
      "name": "allowance",
      "outputs": [
        {
          "internalType": "uint256",
          "name": "",
          "type": "uint256"
        }
      ],
      "stateMutability": "view",
      "type": "function"
    },
    {
      "inputs": [
        {
          "internalType": "address",
          "name": "spender",
          "type": "address"
        },
        {
          "internalType": "uint256",
          "name": "value",
          "type": "uint256"
        }
      ],
      "name": "approve",
      "outputs": [
        {
          "internalType": "bool",
          "name": "",
          "type": "bool"
        }
      ],
      "stateMutability": "nonpayable",
      "type": "function"
    },
    {
      "inputs": [
        {
          "internalType": "address",
          "name": "account",
          "type": "address"
        }
      ],
      "name": "balanceOf",
      "outputs": [
        {
          "internalType": "uint256",
          "name": "",
          "type": "uint256"
        }
      ],
      "stateMutability": "view",
      "type": "function"
    },
    {
      "inputs": [
        {
          "internalType": "uint256",
          "name": "_qty",
          "type": "uint256"
        }
      ],
      "name": "buyBack",
      "outputs": [],
      "stateMutability": "nonpayable",
      "type": "function"
    },
    {
      "inputs": [
        {
          "internalType": "uint256",
          "name": "_qty",
          "type": "uint256"
        }
      ],
      "name": "buyToken",
      "outputs": [],
      "stateMutability": "payable",
      "type": "function"
    },
    {
      "inputs": [],
      "name": "calculatePrice",
      "outputs": [
        {
          "internalType": "uint256",
          "name": "",
          "type": "uint256"
        }
      ],
      "stateMutability": "pure",
      "type": "function"
    },
    {
      "inputs": [],
      "name": "decimals",
      "outputs": [
        {
          "internalType": "uint8",
          "name": "",
          "type": "uint8"
        }
      ],
      "stateMutability": "view",
      "type": "function"
    },
    {
      "inputs": [
        {
          "internalType": "address",
          "name": "to",
          "type": "address"
        },
        {
          "internalType": "uint256",
          "name": "amount",
          "type": "uint256"
        }
      ],
      "name": "mint",
      "outputs": [],
      "stateMutability": "nonpayable",
      "type": "function"
    },
    {
      "inputs": [],
      "name": "name",
      "outputs": [
        {
          "internalType": "string",
          "name": "",
          "type": "string"
        }
      ],
      "stateMutability": "view",
      "type": "function"
    },
    {
      "inputs": [],
      "name": "owner",
      "outputs": [
        {
          "internalType": "address",
          "name": "",
          "type": "address"
        }
      ],
      "stateMutability": "view",
      "type": "function"
    },
    {
      "inputs": [],
      "name": "pendingOwner",
      "outputs": [
        {
          "internalType": "address",
          "name": "",
          "type": "address"
        }
      ],
      "stateMutability": "view",
      "type": "function"
    },
    {
      "inputs": [],
      "name": "renounceOwnership",
      "outputs": [],
      "stateMutability": "nonpayable",
      "type": "function"
    },
    {
      "inputs": [],
      "name": "reserveBalance",
      "outputs": [
        {
          "internalType": "uint256",
          "name": "",
          "type": "uint256"
        }
      ],
      "stateMutability": "view",
      "type": "function"
    },
    {
      "inputs": [],
      "name": "reserveRatio",
      "outputs": [
        {
          "internalType": "uint256",
          "name": "",
          "type": "uint256"
        }
      ],
      "stateMutability": "view",
      "type": "function"
    },
    {
      "inputs": [
        {
          "internalType": "uint256",
          "name": "_reserveRatio",
          "type": "uint256"
        }
      ],
      "name": "setReserveRatio",
      "outputs": [],
      "stateMutability": "nonpayable",
      "type": "function"
    },
    {
      "inputs": [],
      "name": "symbol",
      "outputs": [
        {
          "internalType": "string",
          "name": "",
          "type": "string"
        }
      ],
      "stateMutability": "view",
      "type": "function"
    },
    {
      "inputs": [],
      "name": "totalSupply",
      "outputs": [
        {
          "internalType": "uint256",
          "name": "supply",
          "type": "uint256"
        }
      ],
      "stateMutability": "pure",
      "type": "function"
    },
    {
      "inputs": [
        {
          "internalType": "address",
          "name": "to",
          "type": "address"
        },
        {
          "internalType": "uint256",
          "name": "value",
          "type": "uint256"
        }
      ],
      "name": "transfer",
      "outputs": [
        {
          "internalType": "bool",
          "name": "",
          "type": "bool"
        }
      ],
      "stateMutability": "nonpayable",
      "type": "function"
    },
    {
      "inputs": [
        {
          "internalType": "address",
          "name": "from",
          "type": "address"
        },
        {
          "internalType": "address",
          "name": "to",
          "type": "address"
        },
        {
          "internalType": "uint256",
          "name": "value",
          "type": "uint256"
        }
      ],
      "name": "transferFrom",
      "outputs": [
        {
          "internalType": "bool",
          "name": "",
          "type": "bool"
        }
      ],
      "stateMutability": "nonpayable",
      "type": "function"
    },
    {
      "inputs": [
        {
          "internalType": "address",
          "name": "newOwner",
          "type": "address"
        }
      ],
      "name": "transferOwnership",
      "outputs": [],
      "stateMutability": "nonpayable",
      "type": "function"
    },
    {
      "inputs": [
        {
          "internalType": "address",
          "name": "_receiver",
          "type": "address"
        }
      ],
      "name": "withdraw",
      "outputs": [
        {
          "internalType": "bool",
          "name": "",
          "type": "bool"
        }
      ],
      "stateMutability": "nonpayable",
      "type": "function"
    }
  ],
  "bytecode": {
    "object": "0x60806040526207a1206009553480156200001857600080fd5b50604051620019bc380380620019bc8339810160408190526200003b91620001db565b8181846001600160a01b0381166200006d57604051631e4fbdf760e01b81526000600482015260240160405180910390fd5b6200007881620000a8565b506005620000878382620002f4565b506006620000968282620002f4565b5050600160075550620003c092505050565b600180546001600160a01b0319169055620000c381620000c6565b50565b600080546001600160a01b038381166001600160a01b0319831681178455604051919092169283917f8be0079c531659141344cd1fd0a4f28419497f9722a3daafe3b4186f6b6457e09190a35050565b634e487b7160e01b600052604160045260246000fd5b600082601f8301126200013e57600080fd5b81516001600160401b03808211156200015b576200015b62000116565b604051601f8301601f19908116603f0116810190828211818310171562000186576200018662000116565b81604052838152602092508683858801011115620001a357600080fd5b600091505b83821015620001c75785820183015181830184015290820190620001a8565b600093810190920192909252949350505050565b600080600060608486031215620001f157600080fd5b83516001600160a01b03811681146200020957600080fd5b60208501519093506001600160401b03808211156200022757600080fd5b62000235878388016200012c565b935060408601519150808211156200024c57600080fd5b506200025b868287016200012c565b9150509250925092565b600181811c908216806200027a57607f821691505b6020821081036200029b57634e487b7160e01b600052602260045260246000fd5b50919050565b601f821115620002ef57600081815260208120601f850160051c81016020861015620002ca5750805b601f850160051c820191505b81811015620002eb57828155600101620002d6565b5050505b505050565b81516001600160401b0381111562000310576200031062000116565b620003288162000321845462000265565b84620002a1565b602080601f831160018114620003605760008415620003475750858301515b600019600386901b1c1916600185901b178555620002eb565b600085815260208120601f198616915b82811015620003915788860151825594840194600190910190840162000370565b5085821015620003b05787850151600019600388901b60f8161c191681555b5050505050600190811b01905550565b6115ec80620003d06000396000f3fe60806040526004361061018b5760003560e01c806370a08231116100d6578063a10954fe1161007f578063dd62ed3e11610059578063dd62ed3e14610445578063e30c397814610498578063f2fde38b146104c357600080fd5b8063a10954fe146103fa578063a9059cbb14610410578063d348b4091461043057600080fd5b80638b4f3b2c116100b05780638b4f3b2c146103795780638da5cb5b1461039957806395d89b41146103e557600080fd5b806370a082311461030c578063715018a61461034f57806379ba50971461036457600080fd5b80632d296bf11161013857806340c10f191161011257806340c10f19146102b057806351cff8d9146102d05780636d25d802146102f057600080fd5b80632d296bf114610265578063313ce567146102785780633609ac8f1461029457600080fd5b80630c7d5cd8116101695780630c7d5cd81461020d57806318160ddd1461023157806323b872dd1461024557600080fd5b8063053f90401461019057806306fdde03146101b2578063095ea7b3146101dd575b600080fd5b34801561019c57600080fd5b506101b06101ab366004611353565b6104e3565b005b3480156101be57600080fd5b506101c7610694565b6040516101d49190611390565b60405180910390f35b3480156101e957600080fd5b506101fd6101f8366004611405565b610726565b60405190151581526020016101d4565b34801561021957600080fd5b5061022360095481565b6040519081526020016101d4565b34801561023d57600080fd5b506000610223565b34801561025157600080fd5b506101fd61026036600461142f565b610740565b6101b0610273366004611353565b610766565b34801561028457600080fd5b50604051601281526020016101d4565b3480156102a057600080fd5b50610223670de0b6b3a764000081565b3480156102bc57600080fd5b506101b06102cb366004611405565b61088a565b3480156102dc57600080fd5b506101fd6102eb36600461146b565b61089c565b3480156102fc57600080fd5b5061022367016345785d8a000081565b34801561031857600080fd5b5061022361032736600461146b565b73ffffffffffffffffffffffffffffffffffffffff1660009081526002602052604090205490565b34801561035b57600080fd5b506101b06108cd565b34801561037057600080fd5b506101b06108e1565b34801561038557600080fd5b506101b0610394366004611353565b610955565b3480156103a557600080fd5b5060005473ffffffffffffffffffffffffffffffffffffffff165b60405173ffffffffffffffffffffffffffffffffffffffff90911681526020016101d4565b3480156103f157600080fd5b506101c7610962565b34801561040657600080fd5b5061022360085481565b34801561041c57600080fd5b506101fd61042b366004611405565b610971565b34801561043c57600080fd5b5061022361097f565b34801561045157600080fd5b50610223610460366004611486565b73ffffffffffffffffffffffffffffffffffffffff918216600090815260036020908152604080832093909416825291909152205490565b3480156104a457600080fd5b5060015473ffffffffffffffffffffffffffffffffffffffff166103c0565b3480156104cf57600080fd5b506101b06104de36600461146b565b6109aa565b6104eb610a5a565b33600090815260026020526040902054811115610569576040517f08c379a000000000000000000000000000000000000000000000000000000000815260206004820152601160248201527f4e6f7420656e6f75676820746f6b656e7300000000000000000000000000000060448201526064015b60405180910390fd5b60008161057461097f565b61057e91906114e8565b9050806008541015610612576040517f08c379a000000000000000000000000000000000000000000000000000000000815260206004820152602660248201527f4e6f7420656e6f75676820726573657276652062616c616e636520746f20627560448201527f79206261636b00000000000000000000000000000000000000000000000000006064820152608401610560565b336000908152600a6020526040812080548492906106319084906114ff565b9091555061064190503383610a9d565b806008600082825461065391906114ff565b9091555050604051339082156108fc029083906000818181858888f19350505050158015610685573d6000803e3d6000fd5b50506106916001600755565b50565b6060600580546106a390611512565b80601f01602080910402602001604051908101604052809291908181526020018280546106cf90611512565b801561071c5780601f106106f15761010080835404028352916020019161071c565b820191906000526020600020905b8154815290600101906020018083116106ff57829003601f168201915b5050505050905090565b600033610734818585610af9565b60019150505b92915050565b60003361074e858285610b06565b610759858585610bd5565b60019150505b9392505050565b60008161077161097f565b61077b91906114e8565b9050803410156107c0576040517fb99e2ab700000000000000000000000000000000000000000000000000000000815234600482015260248101829052604401610560565b6107ca3383610c80565b80600860008282546107dc9190611565565b9091555050336000908152600a602052604081208054849290610800908490611565565b909155505060408051338152602081018490529081018290527f35ea94addbc62df281ade49cc2ad9b3d9259166170cf702928b4ddc045f7256e9060600160405180910390a18034111561088657336108fc61085c83346114ff565b6040518115909202916000818181858888f19350505050158015610884573d6000803e3d6000fd5b505b5050565b610892610cdc565b6108868282610c80565b60006108a6610cdc565b306000818152600260205260409020546108c4919081908590610d2f565b5060015b919050565b6108d5610cdc565b6108df6000610dc4565b565b600154339073ffffffffffffffffffffffffffffffffffffffff16811461094c576040517f118cdaa700000000000000000000000000000000000000000000000000000000815273ffffffffffffffffffffffffffffffffffffffff82166004820152602401610560565b61069181610dc4565b61095d610cdc565b600955565b6060600680546106a390611512565b600033610734818585610bd5565b600061099367016345785d8a0000826114e8565b6109a590670de0b6b3a7640000611565565b905090565b6109b2610cdc565b6001805473ffffffffffffffffffffffffffffffffffffffff83167fffffffffffffffffffffffff00000000000000000000000000000000000000009091168117909155610a1560005473ffffffffffffffffffffffffffffffffffffffff1690565b73ffffffffffffffffffffffffffffffffffffffff167f38d16b8cac22d99fc7c124b9cd0de2d3fa1faef420bfe791d8c362d765e2270060405160405180910390a350565b600260075403610a96576040517f3ee5aeb500000000000000000000000000000000000000000000000000000000815260040160405180910390fd5b6002600755565b73ffffffffffffffffffffffffffffffffffffffff8216610aed576040517f96c6fd1e00000000000000000000000000000000000000000000000000000000815260006004820152602401610560565b61088682600083610df5565b6108848383836001610fa0565b73ffffffffffffffffffffffffffffffffffffffff8381166000908152600360209081526040808320938616835292905220547fffffffffffffffffffffffffffffffffffffffffffffffffffffffffffffffff8114610bcf5781811015610bc0576040517ffb8f41b200000000000000000000000000000000000000000000000000000000815273ffffffffffffffffffffffffffffffffffffffff841660048201526024810182905260448101839052606401610560565b610bcf84848484036000610fa0565b50505050565b73ffffffffffffffffffffffffffffffffffffffff8316610c25576040517f96c6fd1e00000000000000000000000000000000000000000000000000000000815260006004820152602401610560565b73ffffffffffffffffffffffffffffffffffffffff8216610c75576040517fec442f0500000000000000000000000000000000000000000000000000000000815260006004820152602401610560565b610884838383610df5565b73ffffffffffffffffffffffffffffffffffffffff8216610cd0576040517fec442f0500000000000000000000000000000000000000000000000000000000815260006004820152602401610560565b61088660008383610df5565b60005473ffffffffffffffffffffffffffffffffffffffff1633146108df576040517f118cdaa7000000000000000000000000000000000000000000000000000000008152336004820152602401610560565b6040805173ffffffffffffffffffffffffffffffffffffffff85811660248301528416604482015260648082018490528251808303909101815260849091019091526020810180517bffffffffffffffffffffffffffffffffffffffffffffffffffffffff167f23b872dd00000000000000000000000000000000000000000000000000000000179052610bcf9085906110e8565b600180547fffffffffffffffffffffffff00000000000000000000000000000000000000001690556106918161117e565b73ffffffffffffffffffffffffffffffffffffffff8316610e2d578060046000828254610e229190611565565b90915550610edf9050565b73ffffffffffffffffffffffffffffffffffffffff831660009081526002602052604090205481811015610eb3576040517fe450d38c00000000000000000000000000000000000000000000000000000000815273ffffffffffffffffffffffffffffffffffffffff851660048201526024810182905260448101839052606401610560565b73ffffffffffffffffffffffffffffffffffffffff841660009081526002602052604090209082900390555b73ffffffffffffffffffffffffffffffffffffffff8216610f0857600480548290039055610f34565b73ffffffffffffffffffffffffffffffffffffffff821660009081526002602052604090208054820190555b8173ffffffffffffffffffffffffffffffffffffffff168373ffffffffffffffffffffffffffffffffffffffff167fddf252ad1be2c89b69c2b068fc378daa952ba7f163c4a11628f55a4df523b3ef83604051610f9391815260200190565b60405180910390a3505050565b73ffffffffffffffffffffffffffffffffffffffff8416610ff0576040517fe602df0500000000000000000000000000000000000000000000000000000000815260006004820152602401610560565b73ffffffffffffffffffffffffffffffffffffffff8316611040576040517f94280d6200000000000000000000000000000000000000000000000000000000815260006004820152602401610560565b73ffffffffffffffffffffffffffffffffffffffff80851660009081526003602090815260408083209387168352929052208290558015610bcf578273ffffffffffffffffffffffffffffffffffffffff168473ffffffffffffffffffffffffffffffffffffffff167f8c5be1e5ebec7d5bd14f71427d1e84f3dd0314c0f7b2291e5b200ac8c7c3b925846040516110da91815260200190565b60405180910390a350505050565b600061110a73ffffffffffffffffffffffffffffffffffffffff8416836111f3565b9050805160001415801561112f57508080602001905181019061112d9190611578565b155b15610884576040517f5274afe700000000000000000000000000000000000000000000000000000000815273ffffffffffffffffffffffffffffffffffffffff84166004820152602401610560565b6000805473ffffffffffffffffffffffffffffffffffffffff8381167fffffffffffffffffffffffff0000000000000000000000000000000000000000831681178455604051919092169283917f8be0079c531659141344cd1fd0a4f28419497f9722a3daafe3b4186f6b6457e09190a35050565b606061075f83836000846000808573ffffffffffffffffffffffffffffffffffffffff168486604051611226919061159a565b60006040518083038185875af1925050503d8060008114611263576040519150601f19603f3d011682016040523d82523d6000602084013e611268565b606091505b5091509150611278868383611282565b9695505050505050565b6060826112975761129282611311565b61075f565b81511580156112bb575073ffffffffffffffffffffffffffffffffffffffff84163b155b1561130a576040517f9996b31500000000000000000000000000000000000000000000000000000000815273ffffffffffffffffffffffffffffffffffffffff85166004820152602401610560565b508061075f565b8051156113215780518082602001fd5b6040517f1425ea4200000000000000000000000000000000000000000000000000000000815260040160405180910390fd5b60006020828403121561136557600080fd5b5035919050565b60005b8381101561138757818101518382015260200161136f565b50506000910152565b60208152600082518060208401526113af81604085016020870161136c565b601f017fffffffffffffffffffffffffffffffffffffffffffffffffffffffffffffffe0169190910160400192915050565b803573ffffffffffffffffffffffffffffffffffffffff811681146108c857600080fd5b6000806040838503121561141857600080fd5b611421836113e1565b946020939093013593505050565b60008060006060848603121561144457600080fd5b61144d846113e1565b925061145b602085016113e1565b9150604084013590509250925092565b60006020828403121561147d57600080fd5b61075f826113e1565b6000806040838503121561149957600080fd5b6114a2836113e1565b91506114b0602084016113e1565b90509250929050565b7f4e487b7100000000000000000000000000000000000000000000000000000000600052601160045260246000fd5b808202811582820484141761073a5761073a6114b9565b8181038181111561073a5761073a6114b9565b600181811c9082168061152657607f821691505b60208210810361155f577f4e487b7100000000000000000000000000000000000000000000000000000000600052602260045260246000fd5b50919050565b8082018082111561073a5761073a6114b9565b60006020828403121561158a57600080fd5b8151801515811461075f57600080fd5b600082516115ac81846020870161136c565b919091019291505056fea2646970667358221220c1f8c063cc2bc3618bf37ae35bf38495be5304ebe1aada7bca2668e6e0e916d964736f6c63430008140033",
    "linkReferences": {}
  },
  "methodIdentifiers": {
    "PRICE_INCREMENT()": "6d25d802",
    "START_PRICE()": "3609ac8f",
    "acceptOwnership()": "79ba5097",
    "allowance(address,address)": "dd62ed3e",
    "approve(address,uint256)": "095ea7b3",
    "balanceOf(address)": "70a08231",
    "buyBack(uint256)": "053f9040",
    "buyToken(uint256)": "2d296bf1",
    "calculatePrice()": "d348b409",
    "decimals()": "313ce567",
    "mint(address,uint256)": "40c10f19",
    "name()": "06fdde03",
    "owner()": "8da5cb5b",
    "pendingOwner()": "e30c3978",
    "renounceOwnership()": "715018a6",
    "reserveBalance()": "a10954fe",
    "reserveRatio()": "0c7d5cd8",
    "setReserveRatio(uint256)": "8b4f3b2c",
    "symbol()": "95d89b41",
    "totalSupply()": "18160ddd",
    "transfer(address,uint256)": "a9059cbb",
    "transferFrom(address,address,uint256)": "23b872dd",
    "transferOwnership(address)": "f2fde38b",
    "withdraw(address)": "51cff8d9"
  },
  "id": 38
}