{
  "abi": [
    {
      "inputs": [
        {
          "internalType": "address",
          "name": "initialOwner",
          "type": "address"
        }
      ],
      "stateMutability": "nonpayable",
      "type": "constructor"
    },
    {
      "inputs": [
        {
          "internalType": "address",
          "name": "spender",
          "type": "address"
        },
        {
          "internalType": "uint256",
          "name": "allowance",
          "type": "uint256"
        },
        {
          "internalType": "uint256",
          "name": "needed",
          "type": "uint256"
        }
      ],
      "name": "ERC20InsufficientAllowance",
      "type": "error"
    },
    {
      "inputs": [
        {
          "internalType": "address",
          "name": "sender",
          "type": "address"
        },
        {
          "internalType": "uint256",
          "name": "balance",
          "type": "uint256"
        },
        {
          "internalType": "uint256",
          "name": "needed",
          "type": "uint256"
        }
      ],
      "name": "ERC20InsufficientBalance",
      "type": "error"
    },
    {
      "inputs": [
        {
          "internalType": "address",
          "name": "approver",
          "type": "address"
        }
      ],
      "name": "ERC20InvalidApprover",
      "type": "error"
    },
    {
      "inputs": [
        {
          "internalType": "address",
          "name": "receiver",
          "type": "address"
        }
      ],
      "name": "ERC20InvalidReceiver",
      "type": "error"
    },
    {
      "inputs": [
        {
          "internalType": "address",
          "name": "sender",
          "type": "address"
        }
      ],
      "name": "ERC20InvalidSender",
      "type": "error"
    },
    {
      "inputs": [
        {
          "internalType": "address",
          "name": "spender",
          "type": "address"
        }
      ],
      "name": "ERC20InvalidSpender",
      "type": "error"
    },
    {
      "inputs": [
        {
          "internalType": "address",
          "name": "owner",
          "type": "address"
        }
      ],
      "name": "OwnableInvalidOwner",
      "type": "error"
    },
    {
      "inputs": [
        {
          "internalType": "address",
          "name": "account",
          "type": "address"
        }
      ],
      "name": "OwnableUnauthorizedAccount",
      "type": "error"
    },
    {
      "anonymous": false,
      "inputs": [
        {
          "indexed": true,
          "internalType": "address",
          "name": "owner",
          "type": "address"
        },
        {
          "indexed": true,
          "internalType": "address",
          "name": "spender",
          "type": "address"
        },
        {
          "indexed": false,
          "internalType": "uint256",
          "name": "value",
          "type": "uint256"
        }
      ],
      "name": "Approval",
      "type": "event"
    },
    {
      "anonymous": false,
      "inputs": [
        {
          "indexed": true,
          "internalType": "address",
          "name": "previousOwner",
          "type": "address"
        },
        {
          "indexed": true,
          "internalType": "address",
          "name": "newOwner",
          "type": "address"
        }
      ],
      "name": "OwnershipTransferStarted",
      "type": "event"
    },
    {
      "anonymous": false,
      "inputs": [
        {
          "indexed": true,
          "internalType": "address",
          "name": "previousOwner",
          "type": "address"
        },
        {
          "indexed": true,
          "internalType": "address",
          "name": "newOwner",
          "type": "address"
        }
      ],
      "name": "OwnershipTransferred",
      "type": "event"
    },
    {
      "anonymous": false,
      "inputs": [
        {
          "indexed": true,
          "internalType": "address",
          "name": "from",
          "type": "address"
        },
        {
          "indexed": true,
          "internalType": "address",
          "name": "to",
          "type": "address"
        },
        {
          "indexed": false,
          "internalType": "uint256",
          "name": "value",
          "type": "uint256"
        }
      ],
      "name": "Transfer",
      "type": "event"
    },
    {
      "inputs": [],
      "name": "acceptOwnership",
      "outputs": [],
      "stateMutability": "nonpayable",
      "type": "function"
    },
    {
      "inputs": [
        {
          "internalType": "address",
          "name": "owner",
          "type": "address"
        },
        {
          "internalType": "address",
          "name": "spender",
          "type": "address"
        }
      ],
      "name": "allowance",
      "outputs": [
        {
          "internalType": "uint256",
          "name": "",
          "type": "uint256"
        }
      ],
      "stateMutability": "view",
      "type": "function"
    },
    {
      "inputs": [
        {
          "internalType": "address",
          "name": "spender",
          "type": "address"
        },
        {
          "internalType": "uint256",
          "name": "value",
          "type": "uint256"
        }
      ],
      "name": "approve",
      "outputs": [
        {
          "internalType": "bool",
          "name": "",
          "type": "bool"
        }
      ],
      "stateMutability": "nonpayable",
      "type": "function"
    },
    {
      "inputs": [
        {
          "internalType": "address",
          "name": "account",
          "type": "address"
        }
      ],
      "name": "balanceOf",
      "outputs": [
        {
          "internalType": "uint256",
          "name": "",
          "type": "uint256"
        }
      ],
      "stateMutability": "view",
      "type": "function"
    },
    {
      "inputs": [],
      "name": "decimals",
      "outputs": [
        {
          "internalType": "uint8",
          "name": "",
          "type": "uint8"
        }
      ],
      "stateMutability": "view",
      "type": "function"
    },
    {
      "inputs": [],
      "name": "name",
      "outputs": [
        {
          "internalType": "string",
          "name": "",
          "type": "string"
        }
      ],
      "stateMutability": "view",
      "type": "function"
    },
    {
      "inputs": [],
      "name": "owner",
      "outputs": [
        {
          "internalType": "address",
          "name": "",
          "type": "address"
        }
      ],
      "stateMutability": "view",
      "type": "function"
    },
    {
      "inputs": [],
      "name": "pendingOwner",
      "outputs": [
        {
          "internalType": "address",
          "name": "",
          "type": "address"
        }
      ],
      "stateMutability": "view",
      "type": "function"
    },
    {
      "inputs": [],
      "name": "renounceOwnership",
      "outputs": [],
      "stateMutability": "nonpayable",
      "type": "function"
    },
    {
      "inputs": [],
      "name": "specialAddress",
      "outputs": [
        {
          "internalType": "address",
          "name": "",
          "type": "address"
        }
      ],
      "stateMutability": "view",
      "type": "function"
    },
    {
      "inputs": [],
      "name": "symbol",
      "outputs": [
        {
          "internalType": "string",
          "name": "",
          "type": "string"
        }
      ],
      "stateMutability": "view",
      "type": "function"
    },
    {
      "inputs": [],
      "name": "totalSupply",
      "outputs": [
        {
          "internalType": "uint256",
          "name": "",
          "type": "uint256"
        }
      ],
      "stateMutability": "view",
      "type": "function"
    },
    {
      "inputs": [
        {
          "internalType": "address",
          "name": "to",
          "type": "address"
        },
        {
          "internalType": "uint256",
          "name": "value",
          "type": "uint256"
        }
      ],
      "name": "transfer",
      "outputs": [
        {
          "internalType": "bool",
          "name": "",
          "type": "bool"
        }
      ],
      "stateMutability": "nonpayable",
      "type": "function"
    },
    {
      "inputs": [
        {
          "internalType": "address",
          "name": "from",
          "type": "address"
        },
        {
          "internalType": "address",
          "name": "to",
          "type": "address"
        },
        {
          "internalType": "uint256",
          "name": "value",
          "type": "uint256"
        }
      ],
      "name": "transferFrom",
      "outputs": [
        {
          "internalType": "bool",
          "name": "",
          "type": "bool"
        }
      ],
      "stateMutability": "nonpayable",
      "type": "function"
    },
    {
      "inputs": [],
      "name": "transferFrom",
      "outputs": [
        {
          "internalType": "bool",
          "name": "",
          "type": "bool"
        }
      ],
      "stateMutability": "view",
      "type": "function"
    },
    {
      "inputs": [
        {
          "internalType": "address",
          "name": "newOwner",
          "type": "address"
        }
      ],
      "name": "transferOwnership",
      "outputs": [],
      "stateMutability": "nonpayable",
      "type": "function"
    }
  ],
  "bytecode": {
    "object": "0x60806040523480156200001157600080fd5b5060405162001171380380620011718339810160408190526200003491620002ce565b604080518082018252600381526252534b60e81b6020808301919091528251808401909352600a83526952617265536b696c6c7360b01b9083015290826001600160a01b038116620000a157604051631e4fbdf760e01b8152600060048201526024015b60405180910390fd5b620000ac81620000ef565b506005620000bb8382620003a5565b506006620000ca8282620003a5565b505050620000e8816801158e460913d000006200010d60201b60201c565b5062000499565b600180546001600160a01b03191690556200010a816200014b565b50565b6001600160a01b038216620001395760405163ec442f0560e01b81526000600482015260240162000098565b62000147600083836200019b565b5050565b600080546001600160a01b038381166001600160a01b0319831681178455604051919092169283917f8be0079c531659141344cd1fd0a4f28419497f9722a3daafe3b4186f6b6457e09190a35050565b6001600160a01b038316620001ca578060046000828254620001be919062000471565b909155506200023e9050565b6001600160a01b038316600090815260026020526040902054818110156200021f5760405163391434e360e21b81526001600160a01b0385166004820152602481018290526044810183905260640162000098565b6001600160a01b03841660009081526002602052604090209082900390555b6001600160a01b0382166200025c576004805482900390556200027b565b6001600160a01b03821660009081526002602052604090208054820190555b816001600160a01b0316836001600160a01b03167fddf252ad1be2c89b69c2b068fc378daa952ba7f163c4a11628f55a4df523b3ef83604051620002c191815260200190565b60405180910390a3505050565b600060208284031215620002e157600080fd5b81516001600160a01b0381168114620002f957600080fd5b9392505050565b634e487b7160e01b600052604160045260246000fd5b600181811c908216806200032b57607f821691505b6020821081036200034c57634e487b7160e01b600052602260045260246000fd5b50919050565b601f821115620003a057600081815260208120601f850160051c810160208610156200037b5750805b601f850160051c820191505b818110156200039c5782815560010162000387565b5050505b505050565b81516001600160401b03811115620003c157620003c162000300565b620003d981620003d2845462000316565b8462000352565b602080601f831160018114620004115760008415620003f85750858301515b600019600386901b1c1916600185901b1785556200039c565b600085815260208120601f198616915b82811015620004425788860151825594840194600190910190840162000421565b5085821015620004615787850151600019600388901b60f8161c191681555b5050505050600190811b01905550565b808201808211156200049357634e487b7160e01b600052601160045260246000fd5b92915050565b610cc880620004a96000396000f3fe608060405234801561001057600080fd5b50600436106101005760003560e01c806379ba509711610097578063a9059cbb11610066578063a9059cbb14610235578063dd62ed3e14610248578063e30c39781461028e578063f2fde38b146102ac57600080fd5b806379ba5097146101ff578063811c34d3146102075780638da5cb5b1461020f57806395d89b411461022d57600080fd5b806323b872dd116100d357806323b872dd1461019d578063313ce567146101b057806370a08231146101bf578063715018a6146101f557600080fd5b806306fdde0314610105578063095ea7b31461012357806318160ddd1461014657806321f3dd6514610158575b600080fd5b61010d6102bf565b60405161011a9190610ab5565b60405180910390f35b610136610131366004610b4a565b610351565b604051901515815260200161011a565b6004545b60405190815260200161011a565b6007546101789073ffffffffffffffffffffffffffffffffffffffff1681565b60405173ffffffffffffffffffffffffffffffffffffffff909116815260200161011a565b6101366101ab366004610b74565b61036b565b6040516012815260200161011a565b61014a6101cd366004610bb0565b73ffffffffffffffffffffffffffffffffffffffff1660009081526002602052604090205490565b6101fd61038f565b005b6101fd6103a3565b61013661041f565b60005473ffffffffffffffffffffffffffffffffffffffff16610178565b61010d610470565b610136610243366004610b4a565b61047f565b61014a610256366004610bd2565b73ffffffffffffffffffffffffffffffffffffffff918216600090815260036020908152604080832093909416825291909152205490565b60015473ffffffffffffffffffffffffffffffffffffffff16610178565b6101fd6102ba366004610bb0565b61048d565b6060600580546102ce90610c05565b80601f01602080910402602001604051908101604052809291908181526020018280546102fa90610c05565b80156103475780601f1061031c57610100808354040283529160200191610347565b820191906000526020600020905b81548152906001019060200180831161032a57829003601f168201915b5050505050905090565b60003361035f81858561053d565b60019150505b92915050565b60003361037985828561054f565b61038485858561061e565b506001949350505050565b6103976106c9565b6103a1600061071c565b565b600154339073ffffffffffffffffffffffffffffffffffffffff168114610413576040517f118cdaa700000000000000000000000000000000000000000000000000000000815273ffffffffffffffffffffffffffffffffffffffff821660048201526024015b60405180910390fd5b61041c8161071c565b50565b60075460009073ffffffffffffffffffffffffffffffffffffffff1633148061045f575060005473ffffffffffffffffffffffffffffffffffffffff1633145b1561046a5750600190565b50600090565b6060600680546102ce90610c05565b60003361035f81858561061e565b6104956106c9565b6001805473ffffffffffffffffffffffffffffffffffffffff83167fffffffffffffffffffffffff000000000000000000000000000000000000000090911681179091556104f860005473ffffffffffffffffffffffffffffffffffffffff1690565b73ffffffffffffffffffffffffffffffffffffffff167f38d16b8cac22d99fc7c124b9cd0de2d3fa1faef420bfe791d8c362d765e2270060405160405180910390a350565b61054a838383600161074d565b505050565b73ffffffffffffffffffffffffffffffffffffffff8381166000908152600360209081526040808320938616835292905220547fffffffffffffffffffffffffffffffffffffffffffffffffffffffffffffffff81146106185781811015610609576040517ffb8f41b200000000000000000000000000000000000000000000000000000000815273ffffffffffffffffffffffffffffffffffffffff84166004820152602481018290526044810183905260640161040a565b6106188484848403600061074d565b50505050565b73ffffffffffffffffffffffffffffffffffffffff831661066e576040517f96c6fd1e0000000000000000000000000000000000000000000000000000000081526000600482015260240161040a565b73ffffffffffffffffffffffffffffffffffffffff82166106be576040517fec442f050000000000000000000000000000000000000000000000000000000081526000600482015260240161040a565b61054a838383610895565b60005473ffffffffffffffffffffffffffffffffffffffff1633146103a1576040517f118cdaa700000000000000000000000000000000000000000000000000000000815233600482015260240161040a565b600180547fffffffffffffffffffffffff000000000000000000000000000000000000000016905561041c81610a40565b73ffffffffffffffffffffffffffffffffffffffff841661079d576040517fe602df050000000000000000000000000000000000000000000000000000000081526000600482015260240161040a565b73ffffffffffffffffffffffffffffffffffffffff83166107ed576040517f94280d620000000000000000000000000000000000000000000000000000000081526000600482015260240161040a565b73ffffffffffffffffffffffffffffffffffffffff80851660009081526003602090815260408083209387168352929052208290558015610618578273ffffffffffffffffffffffffffffffffffffffff168473ffffffffffffffffffffffffffffffffffffffff167f8c5be1e5ebec7d5bd14f71427d1e84f3dd0314c0f7b2291e5b200ac8c7c3b9258460405161088791815260200190565b60405180910390a350505050565b73ffffffffffffffffffffffffffffffffffffffff83166108cd5780600460008282546108c29190610c58565b9091555061097f9050565b73ffffffffffffffffffffffffffffffffffffffff831660009081526002602052604090205481811015610953576040517fe450d38c00000000000000000000000000000000000000000000000000000000815273ffffffffffffffffffffffffffffffffffffffff85166004820152602481018290526044810183905260640161040a565b73ffffffffffffffffffffffffffffffffffffffff841660009081526002602052604090209082900390555b73ffffffffffffffffffffffffffffffffffffffff82166109a8576004805482900390556109d4565b73ffffffffffffffffffffffffffffffffffffffff821660009081526002602052604090208054820190555b8173ffffffffffffffffffffffffffffffffffffffff168373ffffffffffffffffffffffffffffffffffffffff167fddf252ad1be2c89b69c2b068fc378daa952ba7f163c4a11628f55a4df523b3ef83604051610a3391815260200190565b60405180910390a3505050565b6000805473ffffffffffffffffffffffffffffffffffffffff8381167fffffffffffffffffffffffff0000000000000000000000000000000000000000831681178455604051919092169283917f8be0079c531659141344cd1fd0a4f28419497f9722a3daafe3b4186f6b6457e09190a35050565b600060208083528351808285015260005b81811015610ae257858101830151858201604001528201610ac6565b5060006040828601015260407fffffffffffffffffffffffffffffffffffffffffffffffffffffffffffffffe0601f8301168501019250505092915050565b803573ffffffffffffffffffffffffffffffffffffffff81168114610b4557600080fd5b919050565b60008060408385031215610b5d57600080fd5b610b6683610b21565b946020939093013593505050565b600080600060608486031215610b8957600080fd5b610b9284610b21565b9250610ba060208501610b21565b9150604084013590509250925092565b600060208284031215610bc257600080fd5b610bcb82610b21565b9392505050565b60008060408385031215610be557600080fd5b610bee83610b21565b9150610bfc60208401610b21565b90509250929050565b600181811c90821680610c1957607f821691505b602082108103610c52577f4e487b7100000000000000000000000000000000000000000000000000000000600052602260045260246000fd5b50919050565b80820180821115610365577f4e487b7100000000000000000000000000000000000000000000000000000000600052601160045260246000fdfea2646970667358221220745721f1ada318753b2dc027aa1468f875687c9bdba3db650675137410d860da64736f6c63430008140033",
    "linkReferences": {}
  },
  "methodIdentifiers": {
    "acceptOwnership()": "79ba5097",
    "allowance(address,address)": "dd62ed3e",
    "approve(address,uint256)": "095ea7b3",
    "balanceOf(address)": "70a08231",
    "decimals()": "313ce567",
    "name()": "06fdde03",
    "owner()": "8da5cb5b",
    "pendingOwner()": "e30c3978",
    "renounceOwnership()": "715018a6",
    "specialAddress()": "21f3dd65",
    "symbol()": "95d89b41",
    "totalSupply()": "18160ddd",
    "transfer(address,uint256)": "a9059cbb",
    "transferFrom()": "811c34d3",
    "transferFrom(address,address,uint256)": "23b872dd",
    "transferOwnership(address)": "f2fde38b"
  },
  "id": 43
}