{
  "abi": [
    {
      "inputs": [
        {
          "internalType": "bytes32",
          "name": "_bytes32",
          "type": "bytes32"
        }
      ],
      "name": "returnsBytes4",
      "outputs": [
        {
          "internalType": "bytes4",
          "name": "",
          "type": "bytes4"
        }
      ],
      "stateMutability": "pure",
      "type": "function"
    },
    {
      "inputs": [
        {
          "internalType": "string",
          "name": "_string",
          "type": "string"
        }
      ],
      "name": "transform",
      "outputs": [
        {
          "internalType": "bytes32",
          "name": "",
          "type": "bytes32"
        }
      ],
      "stateMutability": "pure",
      "type": "function"
    }
  ],
  "bytecode": {
    "object": "0x608060405234801561001057600080fd5b5061024f806100206000396000f3fe608060405234801561001057600080fd5b50600436106100365760003560e01c80630d8959c01461003b5780639e420a8f14610082575b600080fd5b61004c6100493660046100d3565b90565b6040517fffffffff0000000000000000000000000000000000000000000000000000000090911681526020015b60405180910390f35b61009561009036600461011b565b6100a3565b604051908152602001610079565b6000816040516020016100b691906101ea565b604051602081830303815290604052805190602001209050919050565b6000602082840312156100e557600080fd5b5035919050565b7f4e487b7100000000000000000000000000000000000000000000000000000000600052604160045260246000fd5b60006020828403121561012d57600080fd5b813567ffffffffffffffff8082111561014557600080fd5b818401915084601f83011261015957600080fd5b81358181111561016b5761016b6100ec565b604051601f82017fffffffffffffffffffffffffffffffffffffffffffffffffffffffffffffffe0908116603f011681019083821181831017156101b1576101b16100ec565b816040528281528760208487010111156101ca57600080fd5b826020860160208301376000928101602001929092525095945050505050565b6000825160005b8181101561020b57602081860181015185830152016101f1565b50600092019182525091905056fea2646970667358221220af98268c5849988ebd9a369d7e00951d8ae1038b686bf99cc8ee4be107139f2c64736f6c63430008140033",
    "linkReferences": {}
  },
  "methodIdentifiers": {
    "returnsBytes4(bytes32)": "0d8959c0",
    "transform(string)": "9e420a8f"
  },
  "id": 22
}