{
  "abi": [
    {
      "inputs": [
        {
          "internalType": "address",
          "name": "owner",
          "type": "address"
        },
        {
          "internalType": "uint256",
          "name": "value",
          "type": "uint256"
        },
        {
          "internalType": "bytes",
          "name": "data",
          "type": "bytes"
        }
      ],
      "name": "onApprovalReceived",
      "outputs": [
        {
          "internalType": "bytes4",
          "name": "",
          "type": "bytes4"
        }
      ],
      "stateMutability": "nonpayable",
      "type": "function"
    }
  ],
  "bytecode": {
    "object": "0x608060405234801561001057600080fd5b50610174806100206000396000f3fe608060405234801561001057600080fd5b506004361061002b5760003560e01c80637b04a2d014610030575b600080fd5b61006761003e36600461009c565b7f7b04a2d000000000000000000000000000000000000000000000000000000000949350505050565b6040517fffffffff00000000000000000000000000000000000000000000000000000000909116815260200160405180910390f35b600080600080606085870312156100b257600080fd5b843573ffffffffffffffffffffffffffffffffffffffff811681146100d657600080fd5b935060208501359250604085013567ffffffffffffffff808211156100fa57600080fd5b818701915087601f83011261010e57600080fd5b81358181111561011d57600080fd5b88602082850101111561012f57600080fd5b9598949750506020019450505056fea26469706673582212203842e32c35727242f84b72dc6186ba157b50410395cd7d08ac38e0780a3a7a4a64736f6c63430008140033",
    "linkReferences": {}
  },
  "methodIdentifiers": {
    "onApprovalReceived(address,uint256,bytes)": "7b04a2d0"
  },
  "id": 21
}